:100000000C9470010C94A8010C94A8010C94A80104
:100010000C94A8010C94A8010C94A8010C94A801BC
:100020000C94A8010C94A8010C94601F0C9434202B
:100030000C94A3190C94A8010C94A8010C94A80189
:100040000C94A8010C94A8010C94A8010C94A8018C
:100050000C94A8010C94291A0C94A8010C94A801E2
:100060000C94A8010C94A8010C94A8010C94A8016C
:100070000C94A8010C94A8010C94A8010C94A8015C
:100080000C94A8010C94A8010C94A8010C94A8014C
:100090000C94A8010C94A8010C94A8010C94A8013C
:1000A0000C94A8010C94A8010C94A801A800460087
:1000B0000000000000000000000000000000000040
:1000C0000000000000000000000000002A2B2800B3
:1000D00000000000000000000000000000000029F7
:1000E000000000002C1E3420212224342627252E37
:1000F000362D3738271E1F2021222324252633336F
:10010000362E37381F0405060708090A0B0C0D0E9A
:100110000F101112131415161718191A1B1C1D2F66
:100120003130232D350405060708090A0B0C0D0E86
:100130000F101112131415161718191A1B1C1D2F46
:100140003130354C000000000000000000000000CD
:10015000000000000000000000000000000000009F
:1001600000000000000000007E0F00D4FFFFFFC76A
:1001700000000078100363007500700063006100E8
:100180006B00650000000A036E00610073006F00E1
:1001900000000403090409025B00030100A0FA093E
:1001A00004000001030101000921110100012240A6
:1001B0000007058103080001090401000203000093
:1001C00000092111010001222200070582032000FD
:1001D00001070503032000010904020001030000D8
:1001E00000092111010001227B0007058403200082
:1001F000011201000200000008EDFE557701000128
:100200000200010660FF0961A1010962150026FFD5
:10021000009520750881020963150026FF009520CE
:1002200075089102C005010902A10185020901A119
:100230000005091901290815002501950875018196
:10024000020501093009311581257F950275088164
:100250000609381581257F950175088106050C0A68
:1002600038021581257F950175088106C0C00501FA
:100270000980A101850319012AB700150126B700DD
:10028000950175108100C0050C0901A101850419B3
:10029000012AA002150126A002950175108100C057
:1002A00005010906A101050719E029E71500250147
:1002B00095087501810295017508810105071900EE
:1002C00029FF150026FF009506750881000508190D
:1002D000012905950575019102950175039101C0EC
:1002E00011241FBECFEFDAE0DEBFCDBF04B603FEA0
:1002F00018C08091420290914302A0914402B091B3
:1003000045028730904BA740B04B59F410924202FF
:10031000109243021092440210924502E0E0F8E38A
:10032000099511E0A0E0B1E0EAE2F5E402C0059031
:100330000D92AE39B107D9F722E0AEE9B1E001C0C4
:100340001D92A234B207E1F70E94E9100C946A22D0
:100350000C94000055985D98209828980C940310F0
:1003600089EA611101C08AEA0E94D90481E00895F6
:1003700081E0089581E008950C94BA0108950C94E9
:10038000BE011F93CF93DF9300D000D00F92CDB763
:10039000DEB749835A836B833091A10189819A81A9
:1003A00031111DC06623B9F02223A9F00E94430831
:1003B000182F682F89819A810E94EE0769817A81BE
:1003C000812F0F900F900F900F900F90DF91CF9192
:1003D0001F910C94A7160E941B08182FEFCF0E94A4
:1003E000430869817A81EDCFFC01262F408151813C
:1003F0006281738184810C94C10181E00895CF935F
:10040000DF93EC0160E00E94F401BE01DF91CF9127
:100410000C94BF01E1E0F0E0DF0102C0AA0FBB1FB6
:100420006A95E2F7BD01DF0102C0AA0FBB1F4A9522
:10043000E2F76A2B01C0EE0F2A95EAF7962F982370
:10044000961302C08E2B0895E0958E230895242FD5
:10045000462F682F8091A5010E940A020C94AB07D9
:100460000C94AA010C94051008950E9447070E945D
:1004700034022FEF84E39CE0215080409040E1F76C
:1004800000C000000C944D1A0F931F93CF93DF937D
:100490008C0161E00E94F401EC01B8010E94D713C5
:1004A0008823D9F1B801CE010E94BC018823A9F1AB
:1004B000B801CE010E947118882379F1B801CE01EC
:1004C0000E94B614882349F1B801CE010E94DB17BF
:1004D000882319F1F8018281882361F0CA35FDE58E
:1004E000DF0721F170F4C115ECE5DE07A1F0CE3D88
:1004F000DC45C9F0C801DF91CF911F910F910C9499
:10050000B801CB358DE5D807A1F0CC35DD4591F7A5
:100510000E94630CEFCF0E94350280E0DF91CF9103
:100520001F910F9108950E941C0DF7CF0E946C0C33
:10053000E1CF0E946F0CDECF0E948D190C948503D1
:100540000E9488030C949119DF92EF92FF920F930F
:100550001F93CF93DF93E82FF0E0EC53FF4FD4903D
:10056000282F26952695269530E0F901EC59FE4F67
:100570000491877010E0082E02C0159507950A9423
:10058000E2F701701127F901EC5AFE4FE490F12CCB
:10059000082E02C0F594E7940A94E2F791E0E9226C
:1005A000FF24F901EC5BFE4FC491D0E002C0D59569
:1005B000C7958A95E2F7C170DD270115110519F07D
:1005C00081EE0E94DA03E114F10419F086EE0E9434
:1005D000DA038D2D0E94D904EF2819F086EE0E94CF
:1005E0006C04012B19F081EE0E946C04CD2B51F0AC
:1005F0008CE2DF91CF911F910F91FF90EF90DF90F0
:100600000C94D904DF91CF911F910F91FF90EF903F
:10061000DF900895EF92FF920F931F93CF93DF9394
:10062000EC01162F0AE08881882309F454C0813038
:1006300009F04EC08981813099F47E0122E0E20EFA
:10064000F11C8A810E94D904E7012196812F8150F3
:1006500050F3EFE9FFE03197F1F700C00000F7CF6A
:10066000823041F47E0182E0E80EF11C8A810E9412
:10067000DA03EACF833041F47E01E2E0EE0EF11CB2
:100680008A810E946C04E0CF843011F02196DDCF86
:100690002A81229690E080E0AE014F5F5F4F2053A9
:1006A000330B2A30310548F0019778F2EFE9FFE08B
:1006B0003197F1F700C00000F7CF089FB001099F04
:1006C000700D1124C901860F971F2981EA01E4CF1B
:1006D0000E94A402BACFDF91CF911F910F91FF909A
:1006E000EF90089560E00C940A0308950C9475034C
:1006F00081E008950C9478030895CF93C82F0E9449
:1007000076038C2FCF910C947A0380E00C947D03B8
:100710000E94CD180C947D030E94CD189091A001E9
:10072000981721F08093A0010C947D030895CF9336
:10073000DF93CDB7DEB72B970FB6F894DEBF0FBEB1
:10074000CDBF4F83588769877A878B8761110E9455
:10075000B10B1E821D8285E0FE013796DE011196E7
:1007600001900D928A95E1F78C819D81892B89F406
:1007700049815A816B817C818D819E810E94D20A40
:100780002B960FB6F894DEBF0FBECDBFDF91CF9191
:10079000089589819A8189238F3F51F3CE01019673
:1007A0000E94FD018111E4CFEBCFFC01808191819A
:1007B0000C947008CF93C82F882309F48BC082381B
:1007C000C1F40E94CD1881FD85C089E30E946C0BA5
:1007D0000E94D10B2FEF81EE94E021508040904099
:1007E000E1F700C0000089E30E94730BCF910C94E5
:1007F000D10B8338A1F40E94CD1880FD6BC083E536
:100800000E946C0B0E94D10B2FEF81EE94E02150DF
:1008100080409040E1F700C0000083E5E5CF8438D8
:10082000A1F40E94CD1882FD55C087E40E946C0B94
:100830000E94D10B2FEF81EE94E021508040904038
:10084000E1F700C0000087E4CFCF8CEF8C0F813A36
:1008500090F46C2F80910201909103010E94301955
:10086000882329F08C2F0E94730B0E94D10B8C2FB0
:100870000E946C0BBBCF80E28C0F883048F4C770AD
:1008800081E001C0880FCA95EAF70E94940BAECFB1
:10089000EBE5EC0FE33040F4F0E0E95BFE4F8081E4
:1008A00090E0CF910C94F218E8E5EC0FE73150F4AA
:1008B000F0E0EE0FFF1FE75EFE4F80819181CF9148
:1008C0000C940819C03F30F08C2F0E946D11CF910D
:1008D0000C944012CF910895882309F452C08238B5
:1008E00071F40E94CD1881FF4CC089E30E946C0B0B
:1008F0000E94D10B89E30E94730B0C94D10B8338B7
:1009000059F40E94CD1880FF3CC083E50E946C0B17
:100910000E94D10B83E5EFCF843859F40E94CD18A3
:1009200082FF2FC087E40E946C0B0E94D10B87E4EA
:10093000E2CF9CEF980F913AF0F290E2980F983046
:1009400050F4877091E001C0990F8A95EAF7892FDA
:100950000E949A0BD2CF9BE5980F933020F490E041
:1009600080E00C94F21898E5980F973120F490E00D
:1009700080E00C940819803F20F00E94C7110C946D
:10098000401208951F93CF93DF93182FEB010E941D
:10099000DA03209731F4812FDF91CF911F910C94CE
:1009A0006C048FE99FE00197F1F700C000002197E8
:1009B000F0CF70E060E0893311F460E570E00C94F2
:1009C000C204882321F00E94940B0C94D10B08954B
:1009D000882321F00E949A0B0C94D10B0895BF92AA
:1009E000CF92DF92EF92FF920F931F93CF93DF93FB
:1009F0006C01D62FC72FFC011281F580F2949FE085
:100A0000F9220E948A0BE82E8823B9F0E12E1123E7
:100A1000A1F08C2F807F803421F080E28D0F883010
:100A2000D0F080912E0282FD16C082E00E94320C2E
:100A30000E948A0B91E0E82EE926BC2EB2948FE04A
:100A4000B822FBE0FB1508F468C0EB2DF0E0E45998
:100A5000FD4D0C94FA21E12CF0CF0C2F0F70C07FCC
:100A600011F00295007F112399F0002359F080E2E4
:100A70008D0F883010F0D11107C0802F0E94940B89
:100A80000E94D10B8D2F41C0802F0E94A40BF8CF64
:100A90008D2F0E946C04002309F43FC080E28D0F6B
:100AA000883010F0D11104C0802F0E949A0B03C02F
:100AB000802F0E94AA0B0E94D10B2FC00C2F0F7009
:100AC000C07FC03211F00295007FDD2381F0D1306C
:100AD00009F469C0112309F473C0FF2009F469C047
:100AE000F601858180FFCECF8F70858362C08091B3
:100AF0002E0282FF38C0112359F0002329F0802FE5
:100B00000E94940B0E94D10B80E00E94DA0305C082
:100B100080E00E946C040111C7CFEB2DE850FF0B61
:100B2000349720F40E94CD180E947D03EE2009F432
:100B30004DC10E94860B80FD49C1F60112820E94C0
:100B4000800B0E94BC07C6010E9407070E94800B11
:100B5000DF91CF911F910F91FF90EF90DF90CF9099
:100B6000BF900C94C707112389F0F11006C00E94B2
:100B7000B40B802B0E94E104D0CF21E0F212F7CF1A
:100B80000E94B40B802B0E94BA0BC7CFF11006C095
:100B90000E94C70B802F0E94E804BFCF31E0F316FC
:100BA00009F4BBCFF5CF112331F085E08F1508F4A0
:100BB000B4CF802FDFCF94E09F1508F4AECFEACFFB
:100BC000FF2041F3D93349F4FFEF27EE33E0F15032
:100BD00020403040E1F700C000008D2F0E946C04DF
:100BE0009CCF8C2F86958695837069F0813009F0B3
:100BF00094CF8D2F9C2F9370111102C090E080E054
:100C00000E9408198ACF8D2F9C2F9370111102C05A
:100C100090E080E00E94F21880CF8D2F112329F000
:100C20000E946D110E94401278CF0E94C711FACF26
:100C30008C2F837079F5111170CF4D2F4295469509
:100C40004770440F440F8D2F8F70042E01C0880F02
:100C50000A94EAF72D2F2071D4FF07C02FE030E06F
:100C600001C0220F4A95EAF72095C695C695C37034
:100C7000822BC23049F058F4C13019F00E949D0710
:100C80004CCF0E94980749CF0E94A20746CF0E94EE
:100C9000960743CF8695112311F08C2F81708823FE
:100CA00009F43BCF4D2F429546954770440F440FB2
:100CB0008D2F8F70042E01C0880F0A94EAF72D2F14
:100CC0002071D4FF07C02FE030E001C0220F4A9509
:100CD000EAF72095C695C695C370822BC23049F0BD
:100CE00058F4C13019F00E94E30717CF0E94DE07C5
:100CF00014CF0E94E80711CF0E94AB070ECFCF7030
:100D0000112329F08C2F0E94BC078D2F33CF8D2FFC
:100D10000E94E8048C2F0E94C707FFCED23F51F1FA
:100D200060F4D03FB9F0D13F81F0112309F449C0FC
:100D3000F110A8CE8C2F8F7121C0D33F11F1D43F79
:100D4000A1F780912E0282FF26C08C2F8F71112374
:100D500011F314C0112349F084E08F1508F4DDCE9F
:100D60008C2F8F710E94D307D8CE95E09F1508F481
:100D7000D4CEF6CF8C2F8F711111CDCF0E94BC072E
:100D8000CCCE112329F08C2F8F710E94B407C5CED1
:100D90000E94B107C2CE112349F0CF718C2F0E945F
:100DA000BC0763E08C2F0E94170CB7CE81E00E9435
:100DB000320CE1E0EF1508F0B0CE82E00E94320C78
:100DC000ACCEF110FFCE8C2F8F71A5CFDF91CF91DC
:100DD0001F910F91FF90EF90DF90CF90BF900895FB
:100DE0000F931F93CF93DF93EC01688179818A8100
:100DF0000E947A088C010E94ED070E949507B801B5
:100E0000CE01DF91CF911F910F910C94EF04CF93FE
:100E1000DF93EC018B819C81892B29F0888199815A
:100E200089238F3F59F4DF91CF910895CE010E941D
:100E3000F006CE01DF91CF910C94FF01CE010E940C
:100E400044028111F3CF0E948A0B882361F38A81C7
:100E5000882349F380912E0282FDE5CF82E0DF9165
:100E6000CF910C94320C90E080E00E94F21890E058
:100E700080E00E9408190E94B10B0E94D10B0E94D1
:100E800067130C9440120E947A0B0C9433070E9453
:100E9000A10B0C94430792959F70963091F058F4F3
:100EA000925F9F70923058F4803F19F030F4883E82
:100EB00030F481E008959A5FF4CF843FD1F380E06D
:100EC0000895883EB0F3813FD1F7F3CFFC018081D4
:100ED00091810E9470080C944B07CF93DF9300D050
:100EE00000D00F92CDB7DEB70F900F900F900F90FC
:100EF0000F90DF91CF910895CF93DF9300D000D072
:100F000000D0CDB7DEB726960FB6F894DEBF0FBE81
:100F1000CDBFDF91CF91089508950C948C070E9466
:100F20008D078093A6010C94330708950C948F07C6
:100F30009091A601892B0C948F079091A60189238B
:100F40000C948F079091A60189270C948F070C941D
:100F50008C070C94A7070E94A9078093A5010C9405
:100F6000330780E00C94AB0791E001C0990F8A959C
:100F7000EAF7892F0C94AB0721E030E001C0220F83
:100F80008A95EAF78091A501822B0C94AB0721E0AA
:100F900030E001C0220F8A95EAF720958091A501E3
:100FA00082230C94AB0721E030E001C0220F8A9528
:100FB000EAF78091A50182270C94AB079091A501D7
:100FC000892B0C94AB079091A50189230C94AB0756
:100FD0009091A50189270C94AB070895E92FEE0F96
:100FE0009E0F890F982F977041E001C0440F9A958A
:100FF000EAF786958695869593E0899FF0011124FE
:10100000EE55FE4F30E020E070E05191DF01119786
:10101000CB01022E02C0969587950A94E2F7817063
:1010200081958527842385278C932F5F3F4F23301D
:10103000310559F70895E92FEE0F9E0F890F982F6C
:10104000977086958695869523E0829FF0011124FE
:10105000EE55FE4F50E040E080E0219130E0092E57
:1010600002C0369527950A94E2F721703327042EA3
:1010700001C0220F0A94EAF7822B4F5F5F4F433083
:10108000510559F70895CF92DF92FF920F931F9366
:10109000CF93DF936C010091A5018091A601082BED
:1010A000C7E0D0E010E0FC2EC8010C2E02C09595E0
:1010B00087950A94E2F780FD0CC02197A0F7F12CE8
:1010C0008F2DDF91CF911F910F91FF90DF90CF90E7
:1010D0000895B6018C2F0E94F10E019771F3F0CFA5
:1010E000CF93DF93EC010E944308BE01DF91CF91C3
:1010F0000C94F10E1F93CF93DF93EB019091A1011C
:10110000992331F0CB01DF91CF911F910C9470089E
:10111000882379F0CB010E944308182F682FCE0155
:101120000E94EE07BE01812FDF91CF911F910C9499
:10113000F10ECB010E941B08182FF4CF1F93CF9301
:10114000DF93C091A70116E08091A8018C1304C021
:10115000DF91CF911F910895D0E01C9FF0011D9F5A
:10116000F00D1124E755FE4F40815181628173815A
:10117000848195810E947C072196C770E5CF4091BC
:10118000D9015091DA016091DB017091DC0180910D
:10119000DD019091DE010C947C07FF920F931F9369
:1011A000CF93DF938091DE01807FD1F48091DB01CA
:1011B0008823B1F08091A7011091A8016091D90115
:1011C0007091DA01A091DC01B091DD01062F0723B7
:1011D000C0910001D091010196E0F92E181306C0CC
:1011E000DF91CF911F910F91FF90089590E010979C
:1011F00011F00F3F19F401968770F0CFF89E90011F
:10120000F99E300D1124F901E755FE4F4181471336
:10121000F2CF40814613EFCF42814111ECCF4381A1
:1012200054814A1B5B0B4C175D0728F78091DE0148
:101230008F7080618093DE01F901E255FE4F80815D
:101240008F708061808389ED91E00E940707DF91B4
:10125000CF911F910F91FF900C949E08AF92BF9277
:10126000CF92DF92EF92FF920F931F93CF93DF9372
:10127000CDB7DEB761970FB6F894DEBF0FBECDBF16
:101280008C0185E0F801DE011D9601900D928A9592
:10129000E1F7F801E28089EDC82E81E0D82E609157
:1012A000DC017091DD016115710509F45FC1909158
:1012B000D9012091DA01892F82238F3F09F456C189
:1012C00040815181A380B480F090DB01F501E61BE1
:1012D000F70BBF01E0910001F0910101FF2009F43B
:1012E000F6C08091DE01382F307F6E177F0708F03F
:1012F000AFC0311179C0FE2C251323C0941321C037
:10130000E1101FC08F7080618093DE010E94BF08D2
:10131000C6010E9407078091DE01F80185838F2DA9
:1013200061960FB6F894DEBF0FBECDBFDF91CF91AF
:101330001F910F91FF90EF90DF90CF90BF90AF90F3
:101340000895AB2829F0842F85238F3F09F027C10A
:1013500080E0F82FF170DF2E80FF3CC08091A70164
:101360002091A80136E0821315C04D875E878D85D8
:101370009E850E947008292F22952F702230F0F050
:10138000243018F59F70F1F0F8019581907FD1F429
:10139000D12C1EC090E0389FF001399FF00D112430
:1013A000E755FE4F6181651306C06081641303C079
:1013B00062816E110FC001968770D5CF9F7011F0BA
:1013C000882331F3805E883018F3C8010E94070734
:1013D000FD2CA5CFEE2009F4A2CF8091DE01816023
:1013E0008093DE01F12C9BCF251306C0941304C01B
:1013F000F801EE2009F487C0C8010E94660788231F
:1014000019F1EE2009F18091DE01803270F0209117
:10141000D9013091DA0138872F831986BB86AA86D5
:101420008C87CE0107960E94070786E0F801A9ED98
:10143000B1E001900D928A95E1F70E94CD080E94DB
:10144000BF08FF24F3946BCFC8010E940707F9CFB0
:10145000311113C07A2DB98AA88A6E2D89890E940C
:101460006D0789ED91E00E94070786E0F601119271
:101470008A95E9F70E94BF08B5CF25130FC09413D2
:101480000DC0E1100BC0F8018583C8010E94070759
:1014900086E0F60111928A95E9F741CFC8010E94D2
:1014A0006607882389F2EE2079F28091DE0180328E
:1014B00008F4BBCF2091D9013091DA013A83298316
:1014C0001B82BD82AC828E83CE010196ACCF6E179B
:1014D0007F0708F03EC0FE2CEE2009F4B5CF25139F
:1014E0002AC0941328C08091DE0180FD1BC0982F74
:1014F000907FC1F0F8018583903F31F0982F907F65
:10150000905F8F70892B8583C8010E94070786E052
:10151000F801A9EDB1E001900D928A95E1F70E94E2
:10152000BF08FDCE86E0F801A9EDB1E001900D9273
:101530008A95E1F7F4CEC8010E946607811175CF44
:101540008091DE0181608093DE01C8010E9407075F
:10155000E6CE7A2DB98AA88A6E2D89890E946D07F8
:1015600086E0F60111928A95E9F7D9CFEE2009F4C9
:101570006BCFC8010E946607F82E882309F464CF58
:1015800086E0F801A9EDB1E001900D928A95E1F7AE
:1015900089ED91E00E94D5030E94CD08C0CF81E083
:1015A0008E25D7CE1F93CF93DF93CDB7DEB72C9781
:1015B0000FB6F894DEBF0FBECDBF4F835887698743
:1015C0007A878B879C87CE0107960E942E098823F5
:1015D00069F08A859B85892B39F04F815885842F46
:1015E00085238F3F09F071C016E05FC086E0FE01E1
:1015F0003796DE01119601900D928A95E1F78A8562
:101600009B85892B89F38F81988589238F3F61F38F
:101610002091A80130E0C901019687709927409177
:10162000A7014817190671F40E9447071092A801F4
:101630001092A70186E0E9EDF1E0DF011D928A95A5
:10164000E9F7D2CF96E0929FD001939FB00D11247D
:10165000A755BE4FFE01319601900D929A95E1F784
:101660008093A8010E949E08BFCF819FC0011124D2
:1016700087559E4F0E942E098823E9F0E091A7012B
:101680001E9FF0011124E755FE4F40815181628178
:101690007381848195810E947C078091A70190E0ED
:1016A0000196877099278093A7018091A701909157
:1016B000A8018913DACF2C960FB6F894DEBF0FBEBF
:1016C000CDBFDF91CF911F91089569857A858B8574
:1016D0009C850E947C0788CF682F809102019091A1
:1016E00003010C946619682F809102019091030107
:1016F0000C94681980910201909103010C946A196D
:101700008091E70185958595859508958091E701FC
:10171000877008959091E701977081E009F480E067
:1017200008958091F20108959091F201892B8093A0
:10173000F201089580959091F20198239093F2011F
:1017400008951092F20108959091F101892B8093F0
:10175000F101089580959091F10198239093F10102
:1017600008951092F10108958091E8010895089577
:101770000C94B70B90912E0292FD08C09091E80155
:10178000981721F08093E8010C94B80B089580918C
:10179000E801882329F01092E80180E00C94B80B4E
:1017A0000895CF93DF93E0910201F09103018091BE
:1017B000F2018083E0910201F09103018081909118
:1017C000F101892B80839091E801992381F0E091C8
:1017D0000201F09103018081892B808380910201B5
:1017E000909103010E941E1981110E94C70BC091A4
:1017F0000201D091030148E050E06FED71E0CE01AD
:101800000E941B22892B69F088E0FE01AFEDB1E058
:1018100001900D928A95E1F7CE01DF91CF910C9462
:10182000D918DF91CF91089508950C94140C9091DC
:101830002E0292FD10C098E0899F90011124622B26
:101840006093E7010E94BC078091E701859585952B
:1018500085950C94150C0C94BC071092E70180E060
:101860000C94150C9091E701809589238093E701F2
:10187000282F277091F4282F082E000C330B921775
:10188000130659F090912E0292FD07C0859585951B
:1018900085950E94C7070C942D0C089590912E02F7
:1018A00092FB222720F9281769F080FB92F9909388
:1018B0002E0280912D0290912E020E94990C82E0BE
:1018C0000C94320C089580912E0282FB882780F9B7
:1018D00091E089270C944E0C81E00C944E0C80E032
:1018E0000C944E0C6FEF7FEF90E080E00C9454224C
:1018F00090E080E00E943022893E9E4F11F40C94CB
:10190000751380E0089582E090E00C94282283E033
:1019100090E00C942822CF9384E090E00E9428224B
:10192000C82F82E290E00E942822982F8C2FCF911E
:101930000895CF93C92F682F84E090E00E9436224B
:101940006C2F82E290E0CF910C943622AB01BC0167
:101950008FE090E00C944822AB01BC0183E190E061
:101960000C94482260E070E0CB010C94AC0C60E079
:1019700070E0CB010E94A60C0C94B20C69EE7EEFD5
:1019800090E080E00E94542260E082E090E00E94BB
:10199000362260E083E090E00E9436221092A60199
:1019A00060E084E090E00E94362260E082E290E015
:1019B0000E94362260E085E090E00E94362260E0DE
:1019C00086E090E00E9436226FEF87E090E00E9470
:1019D000362240E050E0BA0188E090E00E944822C0
:1019E00060E08DE090E00E94362240E050E0BA01D5
:1019F00088E190E00E94482260E087E190E00E9448
:101A0000362240E050E0BA018CE190E00E9448228A
:101A100070E060E080E290E00E94542240E050E0FC
:101A2000BA0188E190E00E94482280E00E948E1373
:101A30000E94BB130C94B70C0C94BE0C682F8EE064
:101A400090E00C9436220E940E1A6093FC01709371
:101A5000FD018093FE019093FF016093F801709364
:101A6000F9018093FA019093FB0108950E940E1AE8
:101A70006093FC017093FD018093FE019093FF0140
:101A80006093F4017093F5018093F6019093F70150
:101A9000089585B7806885BF85B7806885BF08953C
:101AA000089508950C94510D08950C94540D0E94BE
:101AB000490D8FEC9FE00E94C3180E94500D0C94BA
:101AC000520D81E008950C94610D089508950E94CF
:101AD000650D0C94660D0E94E90F0C947C030E9426
:101AE000F9190E94CA130E9475100E946B0D0E9482
:101AF00079170C94550DEF92FF920F931F93CF938C
:101B0000DF93CDB7DEB72A970FB6F894DEBF0FBECE
:101B1000CDBF0E948010E82E81110E94230D80E02D
:101B20000E940710182F8091F301082F01278113BD
:101B300011C08FEF89838A831B820E94021A816001
:101B4000782F9D838C8349815A816B818D810E947E
:101B500097032DC08091000281FD0E940D10802FFF
:101B60008170F82E00FD34C001FD34C002FFE1CFCA
:101B700002E094E0F92E0E94630D882399F00E8311
:101B80001F821F2181E009F480E088870E94021AE9
:101B90008160782F9A8789874E815F8168858A85E1
:101BA0000E9497038091F301F826F092F30181E0FF
:101BB000E11001C080E02A960FB6F894DEBF0FBE98
:101BC000CDBFDF91CF911F910F91FF90EF900895BE
:101BD00000E0D1CF01E082E0F82ECDCF0E947B0D56
:101BE0000E94911781110E94360D0E945B120C9485
:101BF0008C03CF93DF930E94F50EEC01811521E554
:101C0000920708F042C0811530E5930708F09DC0A7
:101C1000883E910530F5803E910508F092C0883AE3
:101C2000910588F4853A910508F084C081309105CA
:101C300009F487C0009709F484C0049708F081C0B4
:101C4000D0E0C0E07EC08F3B9105D0F7C85AD0E00D
:101C5000CC0FDD1FC65BDE4F0990D881C02DD46448
:101C600070C08115904250F4C11581E0D80708F08A
:101C700068C0C03FD10520F3D06563C0C11590E4B2
:101C8000D907F0F2DF70D06A5CC0811525E59207B4
:101C900000F5811534E5930708F08BC0811543E505
:101CA000940708F073C0C11582E5D80708F469C02D
:101CB000CE018370992721E030E002C0220F331F4C
:101CC0008A95E2F7C695C69580E2C89FE001112487
:101CD00054C0C11599E5D907A8F4C11528E5D20764
:101CE00008F06CC0C11536E5D30708F0A9CF8C2FDA
:101CF0000E948C0FC82FD0E0DC2FCC27CC27DF71BF
:101D0000D0621FC0C1154AE5D40708F45CC0CE01FB
:101D100090568115904208F093CF8D2F8F710E94BD
:101D20008C0F90E0982F882788279F719C012C2B7F
:101D3000E901E6CFC55AD0E0C858DE4FC881D0E0EF
:101D4000D064CE01DF91CF910895E4E09695879518
:101D5000EA95E1F783702C2F26952695237040E2B3
:101D6000249F90011124382B8C2F8370C1E0D0E088
:101D700002C0CC0FDD1F8A95E2F7C22BD32BDC68A3
:101D8000E0CFDC2FCC27C16FD06ADBCF83709927DF
:101D900021E030E002C0220F331F8A95E2F7C6959A
:101DA000C69590E2C99FE0011124C22BD32BDA68BB
:101DB000C8CFD82FCC27C46FD06AC3CFDC2FCC2795
:101DC000C06FD06ABECF8C2F8F700E948C0F34E012
:101DD000D695C7953A95E1F7CF709C2FEC01D06965
:101DE000B0CF0E94A7160C94F90D82389105B1F17D
:101DF000B0F48133910509F475C048F48932910536
:101E000009F469C08A32910509F473C008958533D5
:101E1000910509F459C08933910501F10895833E74
:101E20009105A9F138F4803E9105F9F0823E9105C3
:101E300049F10895863E9105A9F1873E9105C9F1C2
:101E4000843E910519F520912E0221FF1FC080913B
:101E50002D0284FD14C087EE90E0089520912D029C
:101E60002370A1F080EE90E0089520912D0220FDD6
:101E700047C030912E0230FF09C024FF44C090E0DB
:101E800080E004C020912D0222FDF7CF089520911B
:101E90002D0222FD3BC030912E0230FDE3CF24FF06
:101EA000F5CFEDCF20912D0223FFF0CF24FDE7CF1A
:101EB000D2CF20912D0223FD2CC030912E0231FF74
:101EC000EECF84EE90E0089520912D0225FFDECF25
:101ED00089E290E0089520912D0225FFD7CF85E378
:101EE00090E0089520912D0226FFD0CF8AE290E065
:101EF000089520912D0226FFC9CF81E390E0089537
:101F000089E390E0089583EE90E0089582EE90E0FA
:101F1000089586EE90E0089590912D0292FF06C0FC
:101F2000282F28712830F9F4877F846093FF06C03A
:101F3000282F28712831F1F4877E846120912E02A8
:101F400020FF06C0382F38713830D9F4877F816080
:101F500021FF06C0282F28712831D1F4877E8161A6
:101F600094FD877E0895282F24712430F9F68B7F05
:101F70008860DCCF282F2471243101F78B7E8861A3
:101F8000DDCF382F3171313019F78E7F8860E0CF87
:101F9000282F2171213121F78E7E8861E1CF80E0E9
:101FA00008950C94720C0E9480108FE39CE90197B5
:101FB000F1F700C000000E94801080E00E9407102E
:101FC00080FF04C00E94D10F0C944D1A08950C9408
:101FD000D30F0E94780C811102C00E941C0D0E9438
:101FE000830C809300020E948B0C90932E028093AE
:101FF0002D020E94E70F0E94870C0E949607809195
:10200000A5010C94A907089508950C940410E82FD5
:10201000F0E0E05DFD4F80810895089580EA8A95A3
:10202000F1F7089500C008950C940E10F894E82F6D
:10203000E295EF70F0E031A1282F2F7081E090E061
:1020400001C0880F2A95EAF7982F9095932391A3C2
:1020500092A1892B82A37894089584E90E94161096
:1020600084EF0E94161085EF0E94161086EF0C94E4
:1020700016100F931F93CF93DF938C01C62FF89404
:10208000549A5C9878940E941210EBE7F1E081E09A
:10209000D0E091919F3F79F0A92FA295AF70B0E069
:1020A00090962C9130E09F7002C0359527959A95B7
:1020B000E2F7982F20FD90E0D92B880F91E0EE37C2
:1020C000F90739F784E90E94161061E0D11101C0C7
:1020D00060E08C2F0E941410F801EC0FF11DD083EA
:1020E000DF91CF911F910F9108950E942D101092B2
:1020F000300210922F0281E00E94A6100C94300250
:102100001F93CF93DF930F92CDB7DEB7198260E0B4
:10211000CE0101960E94391090912F02898111E021
:10212000981301C010E0981380932F02212F41E0F3
:1021300060E372E08FE292E00E94A7100E943202F8
:10214000812F0F90DF91CF911F9108950895FF92F5
:102150000F931F93CF93DF93F82E092F162FD72FAE
:10216000C42F222349F081E0809303020E94021AC7
:102170009093020280930102809103028823A1F0D0
:1021800080910102909102020E941A1A059760F054
:10219000EF2DF02FA12FBD2FCE0FDF2FD11DEC176C
:1021A000FD0741F410920302DF91CF911F910F912F
:1021B000FF90089581918D93F2CF0E94351C0E946B
:1021C0006F0D0C94411C0E94451C0E94EE0D0C9456
:1021D0005F1C0E94A2190E941C1C0E94570D0E94A5
:1021E000DD100E94E3100E94670DFBCF80910A0270
:1021F00080FF0DC06091090170E0660F771F6038A5
:10220000710570F56115710569F1862F089581FFDB
:1022100007C06091090184E0689FB0011124EFCFED
:102220006091090182FD0AC0809109028823A9F00A
:102230002091080160910901821710F088E0ECCF2D
:10224000869FC001112433E0880F991F3A95E1F76A
:10225000622F70E00E94E621D2CF68E070E0D5CF17
:102260008FE7089581E0089580910A0280FF0CC0F5
:102270006091050170E07595679575956795611595
:10228000710549F1862F089581FF06C0609105010F
:1022900070E075956795F3CF6091050182FD0BC0E5
:1022A000909108029923A1F06091040180910501A9
:1022B000961738F0682F70E06038710500F38FE7EB
:1022C0000895899FC001112470E00E94E621F4CF97
:1022D00061E070E0D7CF81E00895803F31F40E9443
:1022E000F610819580930E020895813F19F40E94A3
:1022F000F610F8CF823F31F40E94F610819580935A
:102300000D020895833F19F40E94F610F8CF893F1B
:1023100029F40E94341180930F0208958A3F21F41A
:102320000E9434118195F7CF8B3F31F40E94341114
:1023300081958093100208958C3F19F40E94341106
:10234000F8CF9CE0980F953070F4845F990B21E0F2
:1023500030E001C0220F8A95EAF780910C02822BAF
:1023600080930C0208958D3F31F480910A028160C0
:1023700080930A0208958E3F21F480910A028260C0
:10238000F7CF8F3FB9F780910A028460F1CF409177
:102390000D02803F59F480910E0287FF0DC010920C
:1023A0000E0241110BC01092090208C0813F81F456
:1023B00080910E0218169CF3442381F080910F0245
:1023C00090911002892B09F05AC0109208020895CA
:1023D000823F49F447FFF0CF10920D0280910E0228
:1023E0008111ECCFE0CF833F19F41416ACF3E4CFA6
:1023F00090910F02893F29F41916F4F610920F02FA
:10240000DBCF8A3F19F497FFD7CFF8CF9091100216
:102410008B3F29F497FFD0CF10921002CDCF8C3F85
:1024200019F41916CCF3C8CF9CE0980F953090F4AE
:10243000845F990B21E030E0B90102C0660F771F7D
:102440008A95E2F7CB01809590910C0289238093C5
:102450000C02B2CF8D3F31F480910A028E7F8093BF
:102460000A02AACF8E3F21F480910A028D7FF7CF16
:102470008F3F09F0A1CF80910A028B7FF0CF0895A2
:102480000E94021A9C0190910D0280910E02982BDD
:1024900021F0309307022093060290910F02809161
:1024A0001002982B21F030930502209304028BE058
:1024B00092E00C94E418EF92FF920F931F93CF9346
:1024C000DF9300D000D000D0CDB7DEB786E0EBE0E0
:1024D000F2E0DE01119601900D928A95E1F7E0900D
:1024E0000D02F0900E0200910F0210911002109256
:1024F0000D0210920E0210920F02109210028E2DF9
:102500008F2991F080910602909107020E941A1A79
:10251000AC0190910902992309F43FC080910A010E
:102520008417150608F447C0802F812B91F0809105
:102530000402909105020E941A1AAC0190910802BF
:10254000992309F477C0809106018417150608F4D1
:102550007FC080910D0290910E02892B90910F0205
:10256000892B90911002892B11F00E94401286E075
:10257000FE013196ABE0B2E001900D928A95E1F751
:1025800026960FB6F894DEBF0FBECDBFDF91CF9178
:102590001F910F91FF90EF90089520910B018AE019
:1025A000289F900111242417350708F0BDCF9F5FA5
:1025B0009093090202C09F3FD1F7EE2059F00E948C
:1025C000F6109FEF1E140CF491E0899F802D1124CA
:1025D00080930D02FF2059F00E94F6109FEF1F1408
:1025E0000CF491E0899F802D112480930E0230918C
:1025F0000D02332309F498CF20910E02222309F40F
:1026000093CF45EB3403C0011124992359F09093E3
:102610000D0245EB240390011124332339F030934C
:102620000E0282CF81E080930D02F3CF81E0809390
:102630000E027ACF209107018AE0289F9001112491
:102640002417350708F085CF9F5F9093080202C0DA
:102650009F3FD1F7002359F00E9434119FEF1016CD
:102660000CF491E0899F802D112480930F02112397
:1026700059F00E9434119FEF11160CF491E0899FDC
:10268000802D11248093100230910F02332309F41E
:1026900060CF20911002222309F45BCF45EB340375
:1026A000C0011124992359F090930F0245EB2403A4
:1026B00090011124332339F0309310024ACF81E086
:1026C00080930F02F3CF81E08093100242CF86E027
:1026D000EBE0F2E0DF011D928A95E9F71092090222
:1026E0001092080210920A02089583E290E00E947C
:1026F0002822823289F484E290E00E9428228730E6
:1027000059F485E290E00E94282291E0873109F097
:1027100090E0892F8170089580E0FCCFCF93C82F7F
:102720006FEF811162E283E290E00E9436226FEF48
:10273000C11167E084E290E00E9436226FEFC11180
:1027400067E185E290E0CF910C943622089586E20D
:1027500090E00E942822682F70E090E080E00895C9
:102760000895CF93C62F0E94B0136C2F86E290E09D
:10277000CF910C94362280E00E948E1360E070E0CE
:10278000CB010E94B1130E9432160E94091781E00A
:102790000C948E130E94A6130E94A7130E94B013DC
:1027A0000E947513811102C00C94BB130895CF933E
:1027B000FB01C281CC2309F19C0122513F4520310C
:1027C000310520F582510E941917C0E08C2FCF915E
:1027D000089581E00E94BC0743E062E081E00E942E
:1027E0002702F3CF81E00E94C70743E062E081E067
:1027F0000E942702EBCF82E0F6CF8031FFE59F07F2
:1028000089F381319F45B9F3C1E0E0CF8031EFE535
:102810009E07F9F281319F45C9F682E0DBCF2FEFA9
:10282000FC01208308951F93CF93DF93EC01162FB3
:10283000E881E150E33108F050C0F0E0E858FD4D88
:102840000C94FA21198289E08A830FC08981823031
:1028500099F08330A1F08130B1F40E940E1A0E94E9
:1028600000226A837B838C839D83612FCE01DF915D
:10287000CF911F910C94F51A0E94A713F0CF80E01E
:102880000E940710E1CF612FCE010E940F14EDCFFF
:1028900089818230C1F76A817B818C819D810E9410
:1028A00000220E94B113E1CF4B816A8189810E948D
:1028B00004169827892798279D838C83D6CF2C814F
:1028C0003D813227232732274B816A8189810E94EB
:1028D0001D16CBCF0E943216C8CF8FEF8883C5CF8D
:1028E0000E94B4168983C1CF0E94B6169827892703
:1028F00098279A838983B9CF6B8170E089819A8107
:10290000AE014C5F5F4F9827892798270E94B91620
:10291000ACCF6B8170E089819A81AE014C5F5F4FD3
:102920009827892798270E94DF169FCF0E940917B2
:102930009CCF0E94F315D6CF6B8170E089819A817C
:10294000AE014C5F5F4F9827892798270E94591640
:102950008CCF6B8170E089819A81AE014C5F5F4FB3
:102960009827892798270E947E167FCFCF93DF93E1
:10297000EC01FB018281882309F433C1C330FDE5FA
:10298000DF07C0F5CA3F9CE5D90730F49E0122500D
:102990003C4524313105B0F50E948B0C90932E02FA
:1029A00080932D02C1318CE5D80709F4EEC008F000
:1029B00069C0C930ECE5DE0709F4D5C0C8F5C530FB
:1029C0008CE5D80709F4C7C000F5C330ECE5DE0795
:1029D00009F4B9C008F0BBC0C230DC4509F4ADC091
:1029E00080912D0290912E020E94990C0E9447071F
:1029F00080E008C0C136EDE5DE0771F2C53AFDE5BD
:102A0000DF0751F2DF91CF91089580912D0280620E
:102A1000C7309CE5D90709F493C080912D028061ED
:102A2000C830DC4508F48CC080912D02806488C0D9
:102A300080912D028B7FCD30FCE5DF0709F480C04B
:102A400098F480912D028E7FCB309CE5D90709F454
:102A500077C080912D028C60CC30DC4508F470C0CA
:102A600080912D028D7F6CC080912D028F7ECF30A2
:102A7000FCE5DF0709F464C008F47BC080912D02F7
:102A80008F7D5EC0CD3F9CE5D90709F47AC050F533
:102A9000C531FCE5DF0709F486C098F480912D026A
:102AA000837FC3319CE5D90709F44AC008F471C09B
:102AB0000E94470790912D02892F97FB87F9805834
:102AC0003FC0CB3FFCE5DF0709F449C008F055C023
:102AD00080912E028160CA3FDC4509F081CF80934E
:102AE0002E027ECFC130EDE5DE0709F468C0A8F400
:102AF000CF3F8CE5D80709F452C080912E02836045
:102B0000C115DD4560F380912E02982F909591704C
:102B10008E7F892B90FB81F9E2CFC136EDE5DE0790
:102B200009F451C0C53AFDE5DF0709F453C0C230CE
:102B3000DD4509F055CF80E043C080912D028160D2
:102B400080932D024DCF80912D028260F9CF80912C
:102B50002D028460F5CF80912D028860F1CF8091A5
:102B60002E028260BCCF0E94470780912D028068B0
:102B7000E7CF80912D02877FE3CF80912E028E7F59
:102B8000AECF80912E028D7FAACF80912D028F7BB8
:102B9000D7CF0E94470780912D028F77D1CF8091A8
:102BA0002E028C7F9CCF80912D0282FB992790F979
:102BB00021E0922790FB82F990FB83F9C1CF81E05D
:102BC0000E941E0D0DCF90912D02892F8F7E94FFB4
:102BD0008061B6CF90912D02892F8E7F90FF81600A
:102BE000AFCF81E00FCF84E0089596E050E0440F2E
:102BF000551F699F400D511D1124899F400D511D86
:102C00001124CA01879608950F931F93CF93DF93E2
:102C10000E94F5158C010E942822C82FD0E0DC2FDD
:102C2000CC27C80101960E9428229E01282BC901A9
:102C3000DF91CF911F910F9108950F931F93CF9321
:102C4000DF93122F032F0E94F515EC01602F0E94D5
:102C50003622612FCE010196DF91CF911F910F9106
:102C60000C943622EF92FF920F931F93CF93DF9332
:102C70008CEAE82E80E0F82ED0E08701C0E0F80171
:102C8000259134914C2F60E08D2F0E941D160E5F10
:102C90001F4FCF5FC33099F786E0E80EF11CDF5F6E
:102CA000D43059F7DF91CF911F910F91FF90EF90A2
:102CB0000895EF92FF920F931F93CF93DF93EC0150
:102CC0008A017C01E60EF71ECE018796CE15DF0540
:102CD00039F4DF91CF911F910F91FF90EF900895FC
:102CE000C831D10540F40E942822F80180830F5F8B
:102CF0001F4F2196E9CFF8011082F9CFCF92DF92D2
:102D0000EF92FF920F931F93CF93DF937C016A01A1
:102D10008C01060F171FEC01CE018796C017D10753
:102D200049F4DF91CF911F910F91FF90EF90DF90C9
:102D3000CF900895C831D10540F4FE01EE19FF0986
:102D4000EC0DFD1D60810E9436222196E5CF462FB5
:102D5000843038F4711105C0633018F460E00C94CD
:102D6000041690E080E0089580E1089581EC93E0FE
:102D70000895EF92FF920F931F93CF93DF93EC018F
:102D80008A017C01E60EF71ECE01CF96CE15DF0537
:102D900039F4DF91CF911F910F91FF90EF9008953B
:102DA000C13C23E0D20740F40E942822F80180832E
:102DB0000F5F1F4F2196E8CFF8011082F9CFCF9215
:102DC000DF92EF92FF920F931F93CF93DF937C01DB
:102DD0006A018C01060F171FEC01CE01CF96C017B8
:102DE000D10749F4DF91CF911F910F91FF90EF90A0
:102DF000DF90CF900895C13C23E0D20740F4FE015C
:102E0000EE19FF09EC0DFD1D60810E94362221960E
:102E1000E4CFCF93DF93CFE3D0E060E0CE010E9418
:102E200036222196C11584E0D807B9F7DF91CF91FA
:102E30000895DF92EF92FF920F931F93CF93DF934A
:102E400000D000D0CDB7DEB7F82E8FE08F1540F060
:102E50008FEF93E00E9428220FE310E08823C1F057
:102E60000F900F900F900F90DF91CF911F910F91C6
:102E7000FF90EF90DF900895011584E0180781F32B
:102E8000C8010E942822811101C0FA940F5F1F4FD0
:102E9000F110F2CF19821A821B821C82DD24D39496
:102EA00078018FEFE81AF80AC8010E942822898366
:102EB0001A828823A9F29FEF980F933078F48A83BF
:102EC000D9820E5F1F4FC7010E9428228B8388235F
:102ED00039F2CE0101960E947203E2CF8701F9CF49
:102EE0008FE891E00197F1F700C0000008950C947D
:102EF000B0013E98469A57985F9A0E94701786B123
:102F000086FB882780F929B130E0220F232F221F6A
:102F1000330B90E0232B09F092E0892B809313026E
:102F20000895E0911302EE0FEE0FE093130286B1C5
:102F300086FB222720F989B190E0880F892F881F0E
:102F4000990B009711F082E090E0822BE82BE09340
:102F50001302EF70F0E0E258FE4F80819091120270
:102F6000890F8093120220E0843054F08091110286
:102F70008F5F8093110260E080E00E94771721E06C
:102F8000809112028D3F54F4809111028150809300
:102F9000110261E080E00E94771721E08091120227
:102FA000082E000C990B64E070E00E94E6218093EB
:102FB0001202822F0895CF93DF93EB0186319C4557
:102FC00011F50E94910B9A81992399F08A7A91E0E8
:102FD00009F490E090931402811109C089E20E94E3
:102FE0006C0B0E94D10B80E0DF91CF91089585E3B7
:102FF000F6CF80911402811104C089E20E94730B04
:10300000F0CF85E3FBCF81E0EFCF0F931F93CF93FA
:10301000DF93C42FD22FFC0182818823C9F0409313
:1030200017020E94021A909316028093150280E202
:103030008C0F883008F050C0C77081E001C0880F45
:10304000CA95EAF7DF91CF911F910F910C94E1049B
:1030500010911702141335C0809115029091160239
:103060000E941A1A883C910560F5C0E2CD0F1D1729
:10307000B9F080E2810F883040F4177081E001C020
:10308000880F1A95EAF70E94E804C83048F481E0F6
:103090009D2F977001C0880F9A95EAF70E94E1046E
:1030A000802F0E94D904C830B8F4D77081E001C0E5
:1030B000880FDA95EAF7DF91CF911F910F910C9469
:1030C000E80480E28C0F883038F4C77081E001C0DA
:1030D000880FCA95EAF7EFCFDF91CF911F910F913B
:1030E00008950F939C01CB01233F4CE5340759F120
:1030F000A8F4283DFCE53F0701F1293D4CE53407E4
:10310000D1F1273D3C4591F406E221EE41EE67ED19
:103110007CE50E94051880E00F910895253FFCE5AD
:103120003F07E9F0B0F0263F3C45F9F0FC01828111
:10313000882339F110921702EFCF07E225EE45EE12
:1031400068ED7CE5E6CF06E221EE40EE63EF7CE53C
:10315000E0CF07E225EE44EE64EF7CE5DACF06E24D
:1031600021EE42EE65EF7CE5D4CF07E225EE46EE98
:1031700066EF7CE5CECF08E221E045EE69ED7CE527
:10318000C8CF81E0C9CF90939F0180939E0108959D
:1031900090931D0280931C020895E0911C02F0910F
:1031A0001D02309721F00190F081E02D099480E01C
:1031B0000895E0911C02F0911D02309721F00280E9
:1031C000F381E02D09940895E0911C02F0911D0215
:1031D000309739F022E0DC012C930480F581E02D5A
:1031E0000994089520911A0230911B02281739077B
:1031F00071F090931B0280931A02E0911C02F091EF
:103200001D02309721F00680F781E02D0994089582
:1032100020911802309119022817390771F0909304
:10322000190280931802E0911C02F0911D02309760
:1032300021F00084F185E02D099408959C012E5F12
:103240003F4FAC01485F5F4F80E02417350709F41A
:103250000895F90191919F019923B9F38F5FF5CFFB
:10326000662349F0FC01329608962191261729F031
:10327000E817F907D1F780E0089581E008959C01EF
:10328000FC0132969FEF80E04191461751F09F3F3D
:1032900019F4411101C0982F8F5F8630A9F79F3F25
:1032A00009F40895290F311D97FD3A95F9016283BC
:1032B0000895FC01329608962191261303C0DF0180
:1032C00011971C92E817F907B9F708950C943F1964
:1032D0000C945919029626E0FC0111922A95E9F7FF
:1032E000089508950C947119811105C081E08093AF
:1032F0001E020C94721982E0FACF83E080931E02C2
:103300000C9472190C94741981E080931E020C9431
:1033100072190C948419089508950C948C190895C9
:1033200008950C948B190E948F190E9480100E949E
:10333000901980E00E94071091E0811101C090E097
:10334000892F089508951F921FB61F9211248F93FD
:103350009F93AF93BF9380911F02811113C08091FF
:10336000310290913202A0913302B0913402419621
:10337000A11DB11D8093310290933202A0933302BC
:10338000B0933402BF91AF919F918F911F901FBE58
:103390001F90189580913902843031F10E949C026F
:1033A00010921F0288E190E020E40FB6F894A895EF
:1033B000809360000FBE2093600083B7817F84609C
:1033C00083BF83B7816083BF7894889583B78E7FEE
:1033D00083BF0FB6F894A8958091600088618093B0
:1033E0006000109260000FBE08950E9447070C9481
:1033F000A00282E084BD93E095BD9AEF97BD8093D3
:103400006E0008952FB7F8948091310290913202A6
:10341000A0913302B09134022FBF08952FB7F894D2
:1034200060913102709132028091330290913402A6
:103430002FBF08959C014FB7F8948091310290916D
:103440003202A0913302B09134024FBF821B930B22
:10345000089578941F921FB61F9211248F939F9303
:10346000AF93BF938091310290913202A0913302C9
:10347000B09134020196A11DB11D80933102909349
:103480003202A0933302B0933402BF91AF919F9167
:103490008F911F901FBE1F90189581E08093E000D0
:1034A00080E28093D8001092C9008FE19EE40197DA
:1034B000F1F700C0000087E090EBDC01809342024E
:1034C00090934302A0934402B093450288E19CE0AC
:1034D0000FB6F894A895809360000FBE909360009B
:1034E000FFCF80912B02089508959C0184E0809382
:1034F000E9009FEF8091E800915085FD06C085EDC1
:103500008A95F1F700009111F5CF8091E80085FFD1
:103510000CC050E040E066E070E0C9010E94061D6A
:103520008091E8008E778093E8000895CF93DF9331
:10353000EC0181E08093E9008FEF9091E8008150E9
:1035400095FD06C095ED9A95F1F700008111F5CF34
:103550008091E80085FF14C050E040E068E070E032
:10356000CE010E94061D8091E8008E778093E800CE
:1035700088E0FE01A3E2B2E001900D928A95E1F7A6
:10358000DF91CF910895809320027093220260937F
:103590002102809139028430F9F48093E9008FEFA1
:1035A0009091E800815095FD06C095ED9A95F1F750
:1035B00000008111F5CF8091E80085FF0DC050E03B
:1035C00040E063E070E080E292E00E94061D80919E
:1035D000E8008E778093E8000895BC0184E00C94A5
:1035E000C31ABC0183E00C94C31ACF93FC01603270
:1035F00021F580913902843001F5C091E900CF7046
:103600002091EC00922F917020FD90E8C92B82E070
:103610008093E9008091E80080FF0CC050E040E01A
:1036200060E270E0CF010E94061D8091E8008E7775
:103630008093E800CF70C093E900CF910895809106
:103640003802811109C00E94E51E0E94421F80912C
:10365000E20084608093E200089510923802089599
:103660000C9484196091350281E0611101C080E001
:103670000C947D199091390281E0943009F080E03A
:10368000609135020C94821942E061EC81E00E9465
:10369000611E42E261EC84E00E94611E42E261EC44
:1036A00082E00E94611E42E260EC83E00E94611EA3
:1036B0009091390281E0943009F080E06091350208
:1036C0000C94741980913B02833009F462C030F489
:1036D0008130D9F1823009F49EC008958A3009F40E
:1036E0008AC08B3009F470C0893009F051C08091D4
:1036F0003A02813209F04CC080913E0290913F0223
:10370000009719F0029709F043C08091E800877F85
:103710008093E8008091E80082FF36C09091F3002A
:103720008091F200029731F48091F100813011F024
:10373000863021F48091F10080932B028091E80083
:103740008B778093E8000C94951E80913A02813A21
:10375000F9F48091E800877F8093E80080913E0231
:1037600090913F02892B61F468E083E292E070E07F
:103770000E94A41D8091E8008B778093E800089553
:1037800060E090E080E0F3CF809139028111C2CFF8
:10379000089580913A02813AD9F780913E02909142
:1037A0003F02892BA9F78091E800877F8093E8008A
:1037B0008091E80080FFFCCF809118018093F10098
:1037C0008091E8008E77BDCF80913A02813201F777
:1037D00080913E0290913F02892BD1F68091E800C2
:1037E000877F8093E8000E94951E80913C02809321
:1037F00018010C94470780913A02813249F6809172
:10380000E800877F8093E8000E94951E80913D022A
:1038100080932C02089580913A02813A09F0B8CF42
:103820008091E800877F8093E8008091E80080FF26
:10383000FCCF80912C02C2CF84B7877F84BF0FB6A4
:10384000F894A89580916000886180936000109240
:1038500060000FBE80E890E00FB6F894809361009E
:10386000909361000FBE0C9489190E94E51E0E947E
:10387000421FE2EEF0E080818460808378940C94B3
:10388000CB218CE091E00C94C818809139028530EE
:10389000A9F480913902853011F00C94F5190E9439
:1038A000CA19809137028823A1F30E9493198823B3
:1038B00081F30E94F01C0E944707EBCF0895CF933D
:1038C000DF93CDB7DEB7A0970FB6F894DEBF0FBE7B
:1038D000CDBF80913902843009F583E08093E900FF
:1038E0008091E80082FF1AC08091E80090E085FF97
:1038F00009C050E040E060E270E0CE0101960E9415
:10390000551D91E08091E8008B778093E800992322
:1039100029F060E2CE0101960E941314A0960FB622
:10392000F894DEBF0FBECDBFDF91CF9108950C9408
:10393000991C292F33272330310521F168F42130D8
:10394000310509F443C02230310509F444C090E048
:1039500080E030E020E026C02132310551F12232F2
:103960003105A9F76330710590F7FB01EE0FFF1FDA
:10397000EF56FE4F2081318162577E4FFB018081DF
:1039800090E010C099278130910581F0009729F0CF
:103990000297E9F6E4E7F1E002C0E2E9F1E08491A0
:1039A00090E09F01FA01318320830895E6E8F1E079
:1039B000F6CF6330710558F6660F771FFB01E956A5
:1039C000FE4F2081318189E090E0ECCF82E190E0F0
:1039D00021EF31E0E7CF8BE590E026E931E0E2CF5F
:1039E00080E189BD82E189BD09B400FEFDCF8091EF
:1039F000D8008F7D8093D8008091E0008260809312
:103A0000E0008091E00081FDFCCF0895AF92BF926D
:103A1000CF92DF92FF920F931F93CF93DF936C01AE
:103A2000EB018A010E94B41EF82E811123C00115FA
:103A3000110539F0F80180819181C81BD90BC80E9E
:103A4000D91EB12CA12C2097A9F08091E80085FD0A
:103A500022C08091E8008E778093E800011511055F
:103A6000A1F0F80180819181A80EB91EB182A082D7
:103A700085E0F82E8F2DDF91CF911F910F91FF9050
:103A8000DF90CF90BF90AF9008950E94B41E88231E
:103A9000D1F2F82EEFCFF60181916F018093F10002
:103AA0002197FFEFAF1ABF0ACECFAF92BF92CF924E
:103AB000DF92FF920F931F93CF93DF936C01EB0183
:103AC0008A010E94B41EF82E811123C00115110530
:103AD00039F0F80180819181C81BD90BC80ED91E1D
:103AE000B12CA12C2097A9F08091E80085FD22C07F
:103AF0008091E8008B778093E80001151105A1F013
:103B0000F80180819181A80EB91EB182A08285E062
:103B1000F82E8F2DDF91CF911F910F91FF90DF90A5
:103B2000CF90BF90AF9008950E94B41E8823D1F229
:103B3000F82EEFCF8091F100F60181936F0121976C
:103B4000FFEFAF1ABF0ACECFFC01809140029091E7
:103B5000410286179707A0F06115710529F490912D
:103B6000E8009E779093E80090E06115710551F4AC
:103B7000911108C08091E80082FF34C080E0089570
:103B8000BC01F2CF809139028823C1F18530C1F1A7
:103B90008091E80083FD30C08091E80082FDEACF8B
:103BA0008091E80080FFE1CF8091F3002091F20046
:103BB000382F6115710519F02830310558F091E062
:103BC0002830310509F090E02091E8002E7720930D
:103BD000E800CBCF81918093F100615071092F5F94
:103BE0003F4FE7CF80913902882341F0853041F083
:103BF0008091E80083FFBECF81E0089582E00895C0
:103C000083E00895FC018091400290914102861763
:103C10009707A0F06115710529F48091E8008E776F
:103C20008093E80090E06115710551F4911108C08E
:103C30008091E80082FF35C080E00895BC01F2CF9A
:103C4000809139028823C9F18530C9F18091E8005B
:103C500083FD31C08091E80082FDEACF8091E800C9
:103C600080FFE1CF8091F3002091F200382F6115A1
:103C7000710519F02830310558F091E028303105F0
:103C800009F090E08091E8008E778093E800CBCF38
:103C900084918093F1003196615071092F5F3F4FFD
:103CA000E6CF80913902882341F0853041F0809140
:103CB000E80083FFBDCF81E0089582E0089583E0AE
:103CC0000895982F973028F08F708093E90081E055
:103CD00008959093E900242F762F50E0981731F043
:103CE0007091EC002091ED005091F00021FD02C098
:103CF0009F5FE8CF3091EB003E7F3093EB00309137
:103D0000ED003D7F3093ED003091EB00316030935A
:103D1000EB007093EC002093ED005093F0002091A5
:103D2000EE0027FDE5CF80E0089580913A0287FFFD
:103D300013C08091E80082FF06C08091E8008B7775
:103D40008093E80004C0809139028111F2CF089578
:103D5000809139028823D9F38091E80080FFF8CF61
:103D60008091E8008E77ECCF2091E4003091E5005F
:103D700095E6A9012091EC00822F817020FF06C0FA
:103D80008091E80080FF06C080E008952091E8005F
:103D900022FD1AC080913902882389F0853089F08C
:103DA0008091EB0085FD0FC02091E4003091E5008B
:103DB00042175307F9F29150E1F684E0089582E04A
:103DC000089583E0089581E008950E94531F0E94A2
:103DD0005B1FE0EEF0E0808181608083E8EDF0E041
:103DE00080818F77808319BCA7EDB0E08C918E7FA6
:103DF0008C9380818F7E80831092380208950F9378
:103E00001F93CF93DF930E94531F0E945B1FC8ED47
:103E1000D0E088818F7788838881806888838881D3
:103E20008F7D888319BC109239021092350210924E
:103E300037021092360200EE10E0F80180818B7F8D
:103E4000808388818160888342E060E080E00E9416
:103E5000611EE1EEF0E080818E7F8083E2EEF0E093
:103E6000808181608083808188608083F801808187
:103E70008E7F8083888180618883DF91CF911F91BD
:103E80000F910895E8EDF0E080818F7E8083E7ED6B
:103E9000F0E080818160808384E082BF81E0809354
:103EA00038020C94FF1EE8EDF0E080818E7F808365
:103EB0001092E20008951092DA001092E100089545
:103EC0001F920F920FB60F9211242F933F934F938F
:103ED0005F936F937F938F939F93AF93BF93EF9372
:103EE000FF938091E10082FF0BC08091E20082FF8E
:103EF00007C08091E1008B7F8093E1000E94CA217E
:103F00008091DA0080FF19C08091D80080FF15C031
:103F10008091DA008E7F8093DA008091D90080FF53
:103F200096C080E189BD82E189BD09B400FEFDCF64
:103F300081E0809339020E941F1B8091E10080FF85
:103F400019C08091E20080FF15C08091E2008E7F51
:103F50008093E2008091E20080618093E200809192
:103F6000D80080628093D80019BC85E08093390224
:103F70000E94321B8091E10084FF2BC08091E200FF
:103F800084FF27C080E189BD82E189BD89B5982F72
:103F9000917080FFFBCF8091D8008F7D8093D800F7
:103FA0008091E1008F7E8093E1008091E2008F7E1E
:103FB0008093E2008091E20081608093E200809132
:103FC0003502882309F449C084E0809339020E94B5
:103FD0003A1B8091E10083FF29C08091E20083FFBA
:103FE00025C08091E100877F8093E10082E080938B
:103FF0003902109235028091E1008E7F8093E100BA
:104000008091E2008E7F8093E2008091E2008061E7
:104010008093E20042E060E080E00E94611E8091B7
:10402000F00088608093F0000E94301BFF91EF91B8
:10403000BF91AF919F918F917F916F915F914F91C0
:104040003F912F910F900FBE0F901F90189519BCA4
:10405000109239020E942D1B70CF8091E30087FDE2
:1040600093E090933902B3CF1F920F920FB60F9245
:1040700011242F933F934F935F936F937F938F936D
:104080009F93AF93BF93CF93DF93EF93FF93D09121
:10409000E900DF708091EC00C82FC17080FDC0E89E
:1040A0001092E9008091F000877F8093F00078946F
:1040B0000E9478201092E9008091F000886080933F
:1040C000F000CD2BCF70C093E900FF91EF91DF910D
:1040D000CF91BF91AF919F918F917F916F915F91A0
:1040E0004F913F912F910F900FBE0F901F901895F9
:1040F0001F93CF93DF93CDB7DEB7AA970FB6F8948F
:10410000DEBF0FBECDBF8AE392E02091F100FC013B
:104110002193CF01F2E082349F07B9F70E94621B1E
:104120008091E80083FF1EC180913A0290913B028A
:104130009A3008F017C1E92FF0E0E557FD4D0C94D7
:10414000FA21803899F0823809F00CC180913E0242
:104150008F70873008F006C18093E9008091EB00F2
:1041600085FB882780F91092E90006C0809136020D
:1041700090913702911182609091E800977F90931F
:10418000E8008093F1001092F1008091E8008E77B2
:10419000E5C0882309F4D3C0823009F0E3C08091E0
:1041A0003C028111D6C080913E028F702FEF280F04
:1041B000263008F0D7C08093E9002091EB0020FF63
:1041C000C8C0933031F48091EB0080628093EB00A3
:1041D000C0C09091EB0090619093EB0021E030E043
:1041E00001C0220F8A95EAF72093EA001092EA00B4
:1041F0008091EB008860EACF8111B4C010913C023D
:104200001F778091E3008078812B8093E300809179
:10421000E800877F8093E8000E94951E8091E80067
:1042200080FFFCCF8091E30080688093E30082E010
:10423000111183E08093390295C08058823008F0D4
:1042400091C080913C0290913D028C3D23E0920709
:10425000A1F583E08A838AE289834FB7F894DE016F
:10426000139620E03EE051E2E32FF0E05093570038
:10427000E49120FF03C0E295EF703F5FEF708E2F57
:1042800090E0EA30C0F0C7968D939D932F5F243164
:1042900059F74FBF8091E800877F8093E8006AE27A
:1042A00070E0CE0101960E94A41D8091E8008B77FA
:1042B0008093E80057C0C096E7CF60913E027091AE
:1042C0003F02AE014F5F5F4F0E94971CBC01892BDC
:1042D00009F448C09091E800977F9093E8008981A5
:1042E0009A810E94021EE1CF8038E1F58091E800BA
:1042F000877F8093E800809135028093F10045CF5D
:10430000811130C090913C02923060F58091E800BC
:10431000877F8093E800909335020E94951E8091DC
:104320003502882311F084E005C08091E30087FD09
:10433000FACF81E0809339020E94441B13C0809120
:104340003C02813079F481E0933009F080E0809381
:1043500037021092E9008091E800877F8093E8009F
:104360000E94951E8091E80083FF0AC08091E800BA
:10437000877F8093E8008091EB0080628093EB0060
:10438000AA960FB6F894DEBF0FBECDBFDF91CF91D6
:104390001F9108950895CF93809139028823A1F049
:1043A000C091E900CF709091EC00892F817090FD51
:1043B00080E8C82B1092E9008091E80083FD0E94FC
:1043C0007820CF70C093E900CF91089597FB072E16
:1043D00016F4009407D077FD09D00E94072207FC4D
:1043E00005D03EF4909581959F4F08957095619505
:1043F0007F4F0895EE0FFF1F0590F491E02D099473
:104400006927962769277827872778270895AA1B81
:10441000BB1B51E107C0AA1FBB1FA617B70710F0AF
:10442000A61BB70B881F991F5A95A9F780959095E1
:10443000BC01CD010895FB01DC0104C08D91019008
:10444000801921F441505040C8F7881B990B0895FA
:10445000F999FECF92BD81BDF89A992780B508954C
:10446000A8E1B0E042E050E00C945C22262FF999DC
:10447000FECF92BD81BDF89A019700B4021639F0C3
:104480001FBA20BD0FB6F894FA9AF99A0FBE089594
:104490000396272F0E9437220E943622252F0E9442
:1044A0003722242F0C9437220196272F0E9437227F
:1044B0000C943622DC01CB01FC01F999FECF06C039
:1044C000F2BDE1BDF89A319600B40D9241505040D2
:1044D000B8F70895F894FFCF2D052D055E055E050C
:1044E000F1050D068D058D0518067F068E068E06D4
:1044F00022142614481454145F146A146D146D1495
:104500006D146D146D14701474147C148914961445
:1045100099149C14A914A120C920B221C920B22148
:0A452000FC201D21B221742180212E
:10452A00C800E901280850011E0A1401711A961AD6
:10453A00751AF11AED1A741A01E200E900EA00B5D7
:10454A0000B600B700CD008301CC008A0192019425
:10455A00012102230224022502260227022A02B38B
:10456A0000B4006F007000818283E200E900EA0073
:10457A00B500B600B700CD008301CC008A019201D4
:10458A0094012102230224022502260227022A027A
:10459A00B300B4006F007000818283F4F5F600FF67
:1045AA000100010000FFFF0000010001FF0040229E
:0E45BA007BA00203022502A801C101E101005D
:00000001FF
